{
  "_format": "hh-sol-artifact-1",
  "contractName": "SwapQuoteQuery",
  "sourceName": "contracts/SwapQuoteQuery.sol",
  "abi": [
    {
      "inputs": [],
      "stateMutability": "nonpayable",
      "type": "constructor"
    },
    {
      "inputs": [],
      "name": "HONEY",
      "outputs": [
        {
          "internalType": "address",
          "name": "",
          "type": "address"
        }
      ],
      "stateMutability": "view",
      "type": "function"
    },
    {
      "inputs": [],
      "name": "WBERA",
      "outputs": [
        {
          "internalType": "address",
          "name": "",
          "type": "address"
        }
      ],
      "stateMutability": "view",
      "type": "function"
    },
    {
      "inputs": [
        {
          "internalType": "bytes32",
          "name": "poolId",
          "type": "bytes32"
        }
      ],
      "name": "getPoolDetails",
      "outputs": [
        {
          "internalType": "contract IERC20[]",
          "name": "tokens",
          "type": "address[]"
        },
        {
          "internalType": "uint256[]",
          "name": "balances",
          "type": "uint256[]"
        },
        {
          "internalType": "uint256",
          "name": "lastChangeBlock",
          "type": "uint256"
        }
      ],
      "stateMutability": "view",
      "type": "function"
    },
    {
      "inputs": [
        {
          "internalType": "bytes32",
          "name": "poolId",
          "type": "bytes32"
        },
        {
          "internalType": "address",
          "name": "token",
          "type": "address"
        },
        {
          "internalType": "uint256",
          "name": "amount",
          "type": "uint256"
        }
      ],
      "name": "getPriceForToken",
      "outputs": [
        {
          "internalType": "uint256",
          "name": "",
          "type": "uint256"
        }
      ],
      "stateMutability": "view",
      "type": "function"
    },
    {
      "inputs": [],
      "name": "vault",
      "outputs": [
        {
          "internalType": "contract IPrice",
          "name": "",
          "type": "address"
        }
      ],
      "stateMutability": "view",
      "type": "function"
    }
  ],
  "bytecode": "0x6080604052736969696969696969696969696969696969696969600160006101000a81548173ffffffffffffffffffffffffffffffffffffffff021916908373ffffffffffffffffffffffffffffffffffffffff160217905550348015606457600080fd5b50734be03f781c497a489e3cb0287833452ca9b9e80b6000806101000a81548173ffffffffffffffffffffffffffffffffffffffff021916908373ffffffffffffffffffffffffffffffffffffffff160217905550610fa8806100c86000396000f3fe608060405234801561001057600080fd5b50600436106100575760003560e01c80631b29e7b91461005c5780632f06367e1461008e578063a0417bad146100ac578063fbfa77cf146100ca578063fbfecffa146100e8575b600080fd5b610076600480360381019061007191906105d8565b610118565b6040516100859392919061080a565b60405180910390f35b6100966101ca565b6040516100a39190610870565b60405180910390f35b6100b46101e2565b6040516100c19190610870565b60405180910390f35b6100d2610208565b6040516100df91906108ac565b60405180910390f35b61010260048036038101906100fd919061091f565b61022c565b60405161010f9190610972565b60405180910390f35b60608060008060009054906101000a900473ffffffffffffffffffffffffffffffffffffffff1673ffffffffffffffffffffffffffffffffffffffff1663f94d4668856040518263ffffffff1660e01b8152600401610177919061099c565b600060405180830381865afa158015610194573d6000803e3d6000fd5b505050506040513d6000823e3d601f19601f820116820180604052508101906101bd9190610c26565b9250925092509193909250565b73fcbd14dc51f0a4d49d5e53c2e0950e0bc26d0dce81565b600160009054906101000a900473ffffffffffffffffffffffffffffffffffffffff1681565b60008054906101000a900473ffffffffffffffffffffffffffffffffffffffff1681565b60008060008060009054906101000a900473ffffffffffffffffffffffffffffffffffffffff1673ffffffffffffffffffffffffffffffffffffffff1663f94d4668876040518263ffffffff1660e01b815260040161028b919061099c565b600060405180830381865afa1580156102a8573d6000803e3d6000fd5b505050506040513d6000823e3d601f19601f820116820180604052508101906102d19190610c26565b509150915060007fffffffffffffffffffffffffffffffffffffffffffffffffffffffffffffffff905060007fffffffffffffffffffffffffffffffffffffffffffffffffffffffffffffffff905060005b84518110156103ef5773fcbd14dc51f0a4d49d5e53c2e0950e0bc26d0dce73ffffffffffffffffffffffffffffffffffffffff1685828151811061036a57610369610cb1565b5b602002602001015173ffffffffffffffffffffffffffffffffffffffff1603610391578092505b8773ffffffffffffffffffffffffffffffffffffffff168582815181106103bb576103ba610cb1565b5b602002602001015173ffffffffffffffffffffffffffffffffffffffff16036103e2578091505b8080600101915050610323565b506000821215610434576040517f08c379a000000000000000000000000000000000000000000000000000000000815260040161042b90610d3d565b60405180910390fd5b6000811215610478576040517f08c379a000000000000000000000000000000000000000000000000000000000815260040161046f90610da9565b60405180910390fd5b600083838151811061048d5761048c610cb1565b5b6020026020010151905060008483815181106104ac576104ab610cb1565b5b60200260200101519050600082116104f9576040517f08c379a00000000000000000000000000000000000000000000000000000000081526004016104f090610e15565b60405180910390fd5b6000811161053c576040517f08c379a000000000000000000000000000000000000000000000000000000000815260040161053390610e81565b60405180910390fd5b600082670de0b6b3a7640000836105539190610ed0565b61055d9190610f41565b9050670de0b6b3a7640000818a6105749190610ed0565b61057e9190610f41565b9750505050505050509392505050565b6000604051905090565b600080fd5b600080fd5b6000819050919050565b6105b5816105a2565b81146105c057600080fd5b50565b6000813590506105d2816105ac565b92915050565b6000602082840312156105ee576105ed610598565b5b60006105fc848285016105c3565b91505092915050565b600081519050919050565b600082825260208201905092915050565b6000819050602082019050919050565b600073ffffffffffffffffffffffffffffffffffffffff82169050919050565b6000819050919050565b600061067661067161066c84610631565b610651565b610631565b9050919050565b60006106888261065b565b9050919050565b600061069a8261067d565b9050919050565b6106aa8161068f565b82525050565b60006106bc83836106a1565b60208301905092915050565b6000602082019050919050565b60006106e082610605565b6106ea8185610610565b93506106f583610621565b8060005b8381101561072657815161070d88826106b0565b9750610718836106c8565b9250506001810190506106f9565b5085935050505092915050565b600081519050919050565b600082825260208201905092915050565b6000819050602082019050919050565b6000819050919050565b6107728161075f565b82525050565b60006107848383610769565b60208301905092915050565b6000602082019050919050565b60006107a882610733565b6107b2818561073e565b93506107bd8361074f565b8060005b838110156107ee5781516107d58882610778565b97506107e083610790565b9250506001810190506107c1565b5085935050505092915050565b6108048161075f565b82525050565b6000606082019050818103600083015261082481866106d5565b90508181036020830152610838818561079d565b905061084760408301846107fb565b949350505050565b600061085a82610631565b9050919050565b61086a8161084f565b82525050565b60006020820190506108856000830184610861565b92915050565b60006108968261067d565b9050919050565b6108a68161088b565b82525050565b60006020820190506108c1600083018461089d565b92915050565b6108d08161084f565b81146108db57600080fd5b50565b6000813590506108ed816108c7565b92915050565b6108fc8161075f565b811461090757600080fd5b50565b600081359050610919816108f3565b92915050565b60008060006060848603121561093857610937610598565b5b6000610946868287016105c3565b9350506020610957868287016108de565b92505060406109688682870161090a565b9150509250925092565b600060208201905061098760008301846107fb565b92915050565b610996816105a2565b82525050565b60006020820190506109b1600083018461098d565b92915050565b600080fd5b6000601f19601f8301169050919050565b7f4e487b7100000000000000000000000000000000000000000000000000000000600052604160045260246000fd5b610a05826109bc565b810181811067ffffffffffffffff82111715610a2457610a236109cd565b5b80604052505050565b6000610a3761058e565b9050610a4382826109fc565b919050565b600067ffffffffffffffff821115610a6357610a626109cd565b5b602082029050602081019050919050565b600080fd5b6000610a848261084f565b9050919050565b610a9481610a79565b8114610a9f57600080fd5b50565b600081519050610ab181610a8b565b92915050565b6000610aca610ac584610a48565b610a2d565b90508083825260208201905060208402830185811115610aed57610aec610a74565b5b835b81811015610b165780610b028882610aa2565b845260208401935050602081019050610aef565b5050509392505050565b600082601f830112610b3557610b346109b7565b5b8151610b45848260208601610ab7565b91505092915050565b600067ffffffffffffffff821115610b6957610b686109cd565b5b602082029050602081019050919050565b600081519050610b89816108f3565b92915050565b6000610ba2610b9d84610b4e565b610a2d565b90508083825260208201905060208402830185811115610bc557610bc4610a74565b5b835b81811015610bee5780610bda8882610b7a565b845260208401935050602081019050610bc7565b5050509392505050565b600082601f830112610c0d57610c0c6109b7565b5b8151610c1d848260208601610b8f565b91505092915050565b600080600060608486031215610c3f57610c3e610598565b5b600084015167ffffffffffffffff811115610c5d57610c5c61059d565b5b610c6986828701610b20565b935050602084015167ffffffffffffffff811115610c8a57610c8961059d565b5b610c9686828701610bf8565b9250506040610ca786828701610b7a565b9150509250925092565b7f4e487b7100000000000000000000000000000000000000000000000000000000600052603260045260246000fd5b600082825260208201905092915050565b7f484f4e455920746f6b656e206e6f7420666f756e6420696e20706f6f6c000000600082015250565b6000610d27601d83610ce0565b9150610d3282610cf1565b602082019050919050565b60006020820190508181036000830152610d5681610d1a565b9050919050565b7f50726f766964656420746f6b656e206e6f7420666f756e6420696e20706f6f6c600082015250565b6000610d93602083610ce0565b9150610d9e82610d5d565b602082019050919050565b60006020820190508181036000830152610dc281610d86565b9050919050565b7f496e73756666696369656e742062616c616e636520666f7220484f4e45590000600082015250565b6000610dff601e83610ce0565b9150610e0a82610dc9565b602082019050919050565b60006020820190508181036000830152610e2e81610df2565b9050919050565b7f496e73756666696369656e742062616c616e636520666f7220746f6b656e0000600082015250565b6000610e6b601e83610ce0565b9150610e7682610e35565b602082019050919050565b60006020820190508181036000830152610e9a81610e5e565b9050919050565b7f4e487b7100000000000000000000000000000000000000000000000000000000600052601160045260246000fd5b6000610edb8261075f565b9150610ee68361075f565b9250828202610ef48161075f565b91508282048414831517610f0b57610f0a610ea1565b5b5092915050565b7f4e487b7100000000000000000000000000000000000000000000000000000000600052601260045260246000fd5b6000610f4c8261075f565b9150610f578361075f565b925082610f6757610f66610f12565b5b82820490509291505056fea2646970667358221220477274794c9958b2c54cb254fb6ab27f77ecced515f236f4809feecb0b58060264736f6c634300081a0033",
  "linkReferences": {},
  "deployedLinkReferences": {}
}