{
  "_format": "hh-sol-artifact-1",
  "contractName": "TicketContract",
  "sourceName": "contracts/TicketContract.sol",
  "abi": [
    {
      "inputs": [
        {
          "internalType": "address",
          "name": "_baseToken",
          "type": "address"
        },
        {
          "internalType": "address",
          "name": "_valutAddress",
          "type": "address"
        },
        {
          "internalType": "address",
          "name": "_swapQuoteQuery",
          "type": "address"
        },
        {
          "internalType": "address",
          "name": "_WETH",
          "type": "address"
        },
        {
          "internalType": "bytes32",
          "name": "_BeraPoolId",
          "type": "bytes32"
        },
        {
          "internalType": "address",
          "name": "_vault",
          "type": "address"
        }
      ],
      "stateMutability": "nonpayable",
      "type": "constructor"
    },
    {
      "anonymous": false,
      "inputs": [
        {
          "indexed": false,
          "internalType": "uint256",
          "name": "teamAmount",
          "type": "uint256"
        },
        {
          "indexed": false,
          "internalType": "address",
          "name": "token",
          "type": "address"
        }
      ],
      "name": "FeesTransfered",
      "type": "event"
    },
    {
      "anonymous": false,
      "inputs": [
        {
          "indexed": true,
          "internalType": "address",
          "name": "previousOwner",
          "type": "address"
        },
        {
          "indexed": true,
          "internalType": "address",
          "name": "newOwner",
          "type": "address"
        }
      ],
      "name": "OwnershipTransferred",
      "type": "event"
    },
    {
      "anonymous": false,
      "inputs": [
        {
          "indexed": false,
          "internalType": "address",
          "name": "account",
          "type": "address"
        }
      ],
      "name": "Paused",
      "type": "event"
    },
    {
      "anonymous": false,
      "inputs": [
        {
          "indexed": false,
          "internalType": "address",
          "name": "newAdmin",
          "type": "address"
        }
      ],
      "name": "SetAdmin",
      "type": "event"
    },
    {
      "anonymous": false,
      "inputs": [
        {
          "indexed": false,
          "internalType": "address",
          "name": "_newBaseTokenAddress",
          "type": "address"
        }
      ],
      "name": "SetBaseTokens",
      "type": "event"
    },
    {
      "anonymous": false,
      "inputs": [
        {
          "indexed": false,
          "internalType": "uint256",
          "name": "ozFees",
          "type": "uint256"
        }
      ],
      "name": "SetOZFees",
      "type": "event"
    },
    {
      "anonymous": false,
      "inputs": [
        {
          "indexed": false,
          "internalType": "address",
          "name": "_routerAddress",
          "type": "address"
        }
      ],
      "name": "SetRouterAddress",
      "type": "event"
    },
    {
      "anonymous": false,
      "inputs": [
        {
          "indexed": false,
          "internalType": "uint256",
          "name": "_slippageTolerance",
          "type": "uint256"
        }
      ],
      "name": "SetSlippageTolerance",
      "type": "event"
    },
    {
      "anonymous": false,
      "inputs": [
        {
          "indexed": false,
          "internalType": "address",
          "name": "teamAddr",
          "type": "address"
        }
      ],
      "name": "SetTeamAddress",
      "type": "event"
    },
    {
      "anonymous": false,
      "inputs": [
        {
          "indexed": false,
          "internalType": "uint256",
          "name": "teamPercent",
          "type": "uint256"
        }
      ],
      "name": "SetTeamPercentage",
      "type": "event"
    },
    {
      "anonymous": false,
      "inputs": [
        {
          "indexed": false,
          "internalType": "uint256",
          "name": "price",
          "type": "uint256"
        }
      ],
      "name": "SetTicketprice",
      "type": "event"
    },
    {
      "anonymous": false,
      "inputs": [
        {
          "indexed": false,
          "internalType": "address",
          "name": "tokenAddr",
          "type": "address"
        }
      ],
      "name": "SetTokenAddress",
      "type": "event"
    },
    {
      "anonymous": false,
      "inputs": [
        {
          "indexed": true,
          "internalType": "address",
          "name": "user",
          "type": "address"
        },
        {
          "indexed": false,
          "internalType": "uint256",
          "name": "amount",
          "type": "uint256"
        }
      ],
      "name": "SetUserBalance",
      "type": "event"
    },
    {
      "anonymous": false,
      "inputs": [
        {
          "indexed": false,
          "internalType": "address",
          "name": "_vaultAddress",
          "type": "address"
        }
      ],
      "name": "SetVaultAddress",
      "type": "event"
    },
    {
      "anonymous": false,
      "inputs": [
        {
          "indexed": true,
          "internalType": "address",
          "name": "user",
          "type": "address"
        },
        {
          "indexed": false,
          "internalType": "uint256",
          "name": "numOfTicket",
          "type": "uint256"
        },
        {
          "indexed": false,
          "internalType": "address",
          "name": "token",
          "type": "address"
        }
      ],
      "name": "TicketPurchased",
      "type": "event"
    },
    {
      "anonymous": false,
      "inputs": [
        {
          "indexed": false,
          "internalType": "address",
          "name": "account",
          "type": "address"
        }
      ],
      "name": "Unpaused",
      "type": "event"
    },
    {
      "inputs": [],
      "name": "BeraPoolId",
      "outputs": [
        {
          "internalType": "bytes32",
          "name": "",
          "type": "bytes32"
        }
      ],
      "stateMutability": "view",
      "type": "function"
    },
    {
      "inputs": [],
      "name": "WETH",
      "outputs": [
        {
          "internalType": "address",
          "name": "",
          "type": "address"
        }
      ],
      "stateMutability": "view",
      "type": "function"
    },
    {
      "inputs": [
        {
          "internalType": "address",
          "name": "_token",
          "type": "address"
        },
        {
          "internalType": "bytes32",
          "name": "poolIdWithHoney",
          "type": "bytes32"
        }
      ],
      "name": "addToken",
      "outputs": [],
      "stateMutability": "nonpayable",
      "type": "function"
    },
    {
      "inputs": [],
      "name": "admin",
      "outputs": [
        {
          "internalType": "address",
          "name": "",
          "type": "address"
        }
      ],
      "stateMutability": "view",
      "type": "function"
    },
    {
      "inputs": [],
      "name": "baseToken",
      "outputs": [
        {
          "internalType": "address",
          "name": "",
          "type": "address"
        }
      ],
      "stateMutability": "view",
      "type": "function"
    },
    {
      "inputs": [
        {
          "internalType": "uint256",
          "name": "amount",
          "type": "uint256"
        }
      ],
      "name": "calculateMinAmountOut",
      "outputs": [
        {
          "internalType": "uint256",
          "name": "",
          "type": "uint256"
        }
      ],
      "stateMutability": "view",
      "type": "function"
    },
    {
      "inputs": [],
      "name": "decimals",
      "outputs": [
        {
          "internalType": "uint256",
          "name": "",
          "type": "uint256"
        }
      ],
      "stateMutability": "view",
      "type": "function"
    },
    {
      "inputs": [
        {
          "internalType": "address",
          "name": "_quoteToken",
          "type": "address"
        },
        {
          "internalType": "uint256",
          "name": "amount",
          "type": "uint256"
        }
      ],
      "name": "getPrice",
      "outputs": [
        {
          "internalType": "uint256",
          "name": "",
          "type": "uint256"
        }
      ],
      "stateMutability": "view",
      "type": "function"
    },
    {
      "inputs": [],
      "name": "owner",
      "outputs": [
        {
          "internalType": "address",
          "name": "",
          "type": "address"
        }
      ],
      "stateMutability": "view",
      "type": "function"
    },
    {
      "inputs": [],
      "name": "ozFees",
      "outputs": [
        {
          "internalType": "uint256",
          "name": "",
          "type": "uint256"
        }
      ],
      "stateMutability": "view",
      "type": "function"
    },
    {
      "inputs": [],
      "name": "pause",
      "outputs": [],
      "stateMutability": "nonpayable",
      "type": "function"
    },
    {
      "inputs": [],
      "name": "paused",
      "outputs": [
        {
          "internalType": "bool",
          "name": "",
          "type": "bool"
        }
      ],
      "stateMutability": "view",
      "type": "function"
    },
    {
      "inputs": [
        {
          "internalType": "address",
          "name": "_token",
          "type": "address"
        },
        {
          "internalType": "uint256",
          "name": "numOfTicket",
          "type": "uint256"
        }
      ],
      "name": "purchaseTicket",
      "outputs": [],
      "stateMutability": "payable",
      "type": "function"
    },
    {
      "inputs": [
        {
          "internalType": "address",
          "name": "_token",
          "type": "address"
        }
      ],
      "name": "removeToken",
      "outputs": [],
      "stateMutability": "nonpayable",
      "type": "function"
    },
    {
      "inputs": [],
      "name": "renounceOwnership",
      "outputs": [],
      "stateMutability": "nonpayable",
      "type": "function"
    },
    {
      "inputs": [
        {
          "internalType": "address",
          "name": "newAdmin",
          "type": "address"
        }
      ],
      "name": "setAdmin",
      "outputs": [],
      "stateMutability": "nonpayable",
      "type": "function"
    },
    {
      "inputs": [
        {
          "internalType": "address",
          "name": "newBaseToken",
          "type": "address"
        }
      ],
      "name": "setBaseToken",
      "outputs": [],
      "stateMutability": "nonpayable",
      "type": "function"
    },
    {
      "inputs": [
        {
          "internalType": "uint256",
          "name": "amount",
          "type": "uint256"
        }
      ],
      "name": "setOZFees",
      "outputs": [],
      "stateMutability": "nonpayable",
      "type": "function"
    },
    {
      "inputs": [
        {
          "internalType": "uint256",
          "name": "_slippageTolerance",
          "type": "uint256"
        }
      ],
      "name": "setSlippageTolerance",
      "outputs": [],
      "stateMutability": "nonpayable",
      "type": "function"
    },
    {
      "inputs": [
        {
          "internalType": "address",
          "name": "_swapQuoteQuery",
          "type": "address"
        }
      ],
      "name": "setSwapQuoteQuery",
      "outputs": [],
      "stateMutability": "nonpayable",
      "type": "function"
    },
    {
      "inputs": [
        {
          "internalType": "address",
          "name": "newTeamAddress",
          "type": "address"
        }
      ],
      "name": "setTeamAddress",
      "outputs": [],
      "stateMutability": "nonpayable",
      "type": "function"
    },
    {
      "inputs": [
        {
          "internalType": "uint256",
          "name": "amount",
          "type": "uint256"
        }
      ],
      "name": "setTeamPercentage",
      "outputs": [],
      "stateMutability": "nonpayable",
      "type": "function"
    },
    {
      "inputs": [
        {
          "internalType": "uint256",
          "name": "price",
          "type": "uint256"
        }
      ],
      "name": "setTicketPrice",
      "outputs": [],
      "stateMutability": "nonpayable",
      "type": "function"
    },
    {
      "inputs": [
        {
          "internalType": "address",
          "name": "newVault",
          "type": "address"
        }
      ],
      "name": "setVaultAddress",
      "outputs": [],
      "stateMutability": "nonpayable",
      "type": "function"
    },
    {
      "inputs": [],
      "name": "slippageTolerance",
      "outputs": [
        {
          "internalType": "uint256",
          "name": "",
          "type": "uint256"
        }
      ],
      "stateMutability": "view",
      "type": "function"
    },
    {
      "inputs": [
        {
          "internalType": "address",
          "name": "",
          "type": "address"
        }
      ],
      "name": "supportedTokens",
      "outputs": [
        {
          "internalType": "address",
          "name": "tokenAddress",
          "type": "address"
        },
        {
          "internalType": "bytes32",
          "name": "poolIdWithHoney",
          "type": "bytes32"
        }
      ],
      "stateMutability": "view",
      "type": "function"
    },
    {
      "inputs": [],
      "name": "swapQuoteQuery",
      "outputs": [
        {
          "internalType": "contract SwapQuoteQuery",
          "name": "",
          "type": "address"
        }
      ],
      "stateMutability": "view",
      "type": "function"
    },
    {
      "inputs": [],
      "name": "teamAddress",
      "outputs": [
        {
          "internalType": "address",
          "name": "",
          "type": "address"
        }
      ],
      "stateMutability": "view",
      "type": "function"
    },
    {
      "inputs": [],
      "name": "teamPercentage",
      "outputs": [
        {
          "internalType": "uint256",
          "name": "",
          "type": "uint256"
        }
      ],
      "stateMutability": "view",
      "type": "function"
    },
    {
      "inputs": [],
      "name": "ticketPrice",
      "outputs": [
        {
          "internalType": "uint256",
          "name": "",
          "type": "uint256"
        }
      ],
      "stateMutability": "view",
      "type": "function"
    },
    {
      "inputs": [],
      "name": "token",
      "outputs": [
        {
          "internalType": "contract IERC20",
          "name": "",
          "type": "address"
        }
      ],
      "stateMutability": "view",
      "type": "function"
    },
    {
      "inputs": [],
      "name": "tokenBalances",
      "outputs": [
        {
          "internalType": "uint256",
          "name": "",
          "type": "uint256"
        }
      ],
      "stateMutability": "view",
      "type": "function"
    },
    {
      "inputs": [
        {
          "internalType": "address",
          "name": "newOwner",
          "type": "address"
        }
      ],
      "name": "transferOwnership",
      "outputs": [],
      "stateMutability": "nonpayable",
      "type": "function"
    },
    {
      "inputs": [],
      "name": "unpause",
      "outputs": [],
      "stateMutability": "nonpayable",
      "type": "function"
    },
    {
      "inputs": [
        {
          "internalType": "address",
          "name": "",
          "type": "address"
        }
      ],
      "name": "userInfo",
      "outputs": [
        {
          "internalType": "uint256",
          "name": "ticketBalance",
          "type": "uint256"
        },
        {
          "internalType": "uint256",
          "name": "lastDepositedTime",
          "type": "uint256"
        }
      ],
      "stateMutability": "view",
      "type": "function"
    },
    {
      "inputs": [],
      "name": "valutAddress",
      "outputs": [
        {
          "internalType": "address",
          "name": "",
          "type": "address"
        }
      ],
      "stateMutability": "view",
      "type": "function"
    },
    {
      "inputs": [],
      "name": "vault",
      "outputs": [
        {
          "internalType": "contract IVault",
          "name": "",
          "type": "address"
        }
      ],
      "stateMutability": "view",
      "type": "function"
    },
    {
      "stateMutability": "payable",
      "type": "receive"
    }
  ],
  "bytecode": "0x60c06040526032600e5534801561001557600080fd5b50604051614b0b380380614b0b83398181016040528101906100379190610411565b6100536100486102ac60201b60201c565b6102b460201b60201c565b600180819055506000600260006101000a81548160ff021916908315150217905550670de0b6b3a7640000600a81905550600a54600161009391906104d7565b6005819055506127106103e86005546100ac91906104d7565b6100b69190610548565b600681905550612710600a546109c46100cf91906104d7565b6100d99190610548565b60078190555033600860006101000a81548173ffffffffffffffffffffffffffffffffffffffff021916908373ffffffffffffffffffffffffffffffffffffffff16021790555033600960006101000a81548173ffffffffffffffffffffffffffffffffffffffff021916908373ffffffffffffffffffffffffffffffffffffffff16021790555085600b60006101000a81548173ffffffffffffffffffffffffffffffffffffffff021916908373ffffffffffffffffffffffffffffffffffffffff16021790555084600d60006101000a81548173ffffffffffffffffffffffffffffffffffffffff021916908373ffffffffffffffffffffffffffffffffffffffff16021790555083600360006101000a81548173ffffffffffffffffffffffffffffffffffffffff021916908373ffffffffffffffffffffffffffffffffffffffff16021790555080600460006101000a81548173ffffffffffffffffffffffffffffffffffffffff021916908373ffffffffffffffffffffffffffffffffffffffff1602179055508273ffffffffffffffffffffffffffffffffffffffff1660808173ffffffffffffffffffffffffffffffffffffffff16815250508160a08181525050505050505050610579565b600033905090565b60008060009054906101000a900473ffffffffffffffffffffffffffffffffffffffff169050816000806101000a81548173ffffffffffffffffffffffffffffffffffffffff021916908373ffffffffffffffffffffffffffffffffffffffff1602179055508173ffffffffffffffffffffffffffffffffffffffff168173ffffffffffffffffffffffffffffffffffffffff167f8be0079c531659141344cd1fd0a4f28419497f9722a3daafe3b4186f6b6457e060405160405180910390a35050565b600080fd5b600073ffffffffffffffffffffffffffffffffffffffff82169050919050565b60006103a88261037d565b9050919050565b6103b88161039d565b81146103c357600080fd5b50565b6000815190506103d5816103af565b92915050565b6000819050919050565b6103ee816103db565b81146103f957600080fd5b50565b60008151905061040b816103e5565b92915050565b60008060008060008060c0878903121561042e5761042d610378565b5b600061043c89828a016103c6565b965050602061044d89828a016103c6565b955050604061045e89828a016103c6565b945050606061046f89828a016103c6565b935050608061048089828a016103fc565b92505060a061049189828a016103c6565b9150509295509295509295565b6000819050919050565b7f4e487b7100000000000000000000000000000000000000000000000000000000600052601160045260246000fd5b60006104e28261049e565b91506104ed8361049e565b92508282026104fb8161049e565b91508282048414831517610512576105116104a8565b5b5092915050565b7f4e487b7100000000000000000000000000000000000000000000000000000000600052601260045260246000fd5b60006105538261049e565b915061055e8361049e565b92508261056e5761056d610519565b5b828204905092915050565b60805160a0516145436105c860003960008181610de601528181611b910152612861015260008181611bf50152818161255b01528181612ad101528181612b080152612b8901526145436000f3fe60806040526004361061021e5760003560e01c8063715018a611610123578063c0c1eebc116100ab578063eb4a533e1161006f578063eb4a533e14610773578063f2fde38b1461079e578063f851a440146107c7578063fbfa77cf146107f2578063fc0c546a1461081d57610225565b8063c0c1eebc146106a0578063c506e122146106c9578063c55dae63146106f2578063d03153aa1461071d578063d6a9e9d11461074857610225565b80638da5cb5b116100f25780638da5cb5b146105cb57806390b65548146105f657806390cf8851146106215780639cb568421461064a578063ad5c46481461067557610225565b8063715018a6146105375780638456cb591461054e57806385535cc51461056557806387190d5f1461058e57610225565b8063313ce567116101a65780635fa7b584116101755780635fa7b584146104535780636450d1fd1461047c5780636690864e146104a757806368c4ac26146104d0578063704b6c021461050e57610225565b8063313ce567146103a95780633f4ba83a146103d4578063449e815d146103eb5780635c975abb1461042857610225565b80631209b1f6116101ed5780631209b1f6146102c357806315981650146102ee57806316bb6c13146103175780631959a002146103405780631c75f0851461037e57610225565b8063039ea7621461022a5780630e3bc974146102535780630fdc05a61461027e578063117da1ee1461029a57610225565b3661022557005b600080fd5b34801561023657600080fd5b50610251600480360381019061024c91906130a3565b610848565b005b34801561025f57600080fd5b506102686108f0565b60405161027591906130df565b60405180910390f35b61029860048036038101906102939190613158565b6108f6565b005b3480156102a657600080fd5b506102c160048036038101906102bc91906130a3565b611775565b005b3480156102cf57600080fd5b506102d861180f565b6040516102e591906130df565b60405180910390f35b3480156102fa57600080fd5b50610315600480360381019061031091906130a3565b611815565b005b34801561032357600080fd5b5061033e60048036038101906103399190613198565b6118d1565b005b34801561034c57600080fd5b5061036760048036038101906103629190613198565b6119c3565b6040516103759291906131c5565b60405180910390f35b34801561038a57600080fd5b506103936119e7565b6040516103a091906131fd565b60405180910390f35b3480156103b557600080fd5b506103be611a0d565b6040516103cb91906130df565b60405180910390f35b3480156103e057600080fd5b506103e9611a13565b005b3480156103f757600080fd5b50610412600480360381019061040d9190613158565b611a25565b60405161041f91906130df565b60405180910390f35b34801561043457600080fd5b5061043d611ee1565b60405161044a9190613233565b60405180910390f35b34801561045f57600080fd5b5061047a60048036038101906104759190613198565b611ef8565b005b34801561048857600080fd5b506104916120b4565b60405161049e91906131fd565b60405180910390f35b3480156104b357600080fd5b506104ce60048036038101906104c99190613198565b6120da565b005b3480156104dc57600080fd5b506104f760048036038101906104f29190613198565b6121cc565b604051610505929190613267565b60405180910390f35b34801561051a57600080fd5b5061053560048036038101906105309190613198565b612210565b005b34801561054357600080fd5b5061054c612302565b005b34801561055a57600080fd5b50610563612316565b005b34801561057157600080fd5b5061058c60048036038101906105879190613198565b612328565b005b34801561059a57600080fd5b506105b560048036038101906105b091906130a3565b61241a565b6040516105c291906130df565b60405180910390f35b3480156105d757600080fd5b506105e0612449565b6040516105ed91906131fd565b60405180910390f35b34801561060257600080fd5b5061060b612472565b60405161061891906130df565b60405180910390f35b34801561062d57600080fd5b5061064860048036038101906106439190613198565b612478565b005b34801561065657600080fd5b5061065f612533565b60405161066c91906132ef565b60405180910390f35b34801561068157600080fd5b5061068a612559565b60405161069791906131fd565b60405180910390f35b3480156106ac57600080fd5b506106c760048036038101906106c29190613336565b61257d565b005b3480156106d557600080fd5b506106f060048036038101906106eb91906130a3565b612787565b005b3480156106fe57600080fd5b5061070761282d565b60405161071491906131fd565b60405180910390f35b34801561072957600080fd5b50610732612853565b60405161073f91906130df565b60405180910390f35b34801561075457600080fd5b5061075d612859565b60405161076a91906130df565b60405180910390f35b34801561077f57600080fd5b5061078861285f565b6040516107959190613376565b60405180910390f35b3480156107aa57600080fd5b506107c560048036038101906107c09190613198565b612883565b005b3480156107d357600080fd5b506107dc612906565b6040516107e991906131fd565b60405180910390f35b3480156107fe57600080fd5b5061080761292c565b60405161081491906133b2565b60405180910390f35b34801561082957600080fd5b50610832612952565b60405161083f91906133ee565b60405180910390f35b610850612978565b6107d0811115610895576040517f08c379a000000000000000000000000000000000000000000000000000000000815260040161088c90613466565b60405180910390fd5b612710816005546108a691906134b5565b6108b09190613526565b6006819055507f1efb68d4f9381d5d19cff6dea59c76bbcb8ce04b7b4c493bc616cb4447b6f67b816040516108e591906130df565b60405180910390a150565b600c5481565b6108fe6129f6565b610906612a40565b60008111610949576040517f08c379a0000000000000000000000000000000000000000000000000000000008152600401610940906135a3565b60405180910390fd5b6000600a546005548361095c91906134b5565b6109669190613526565b90506000600a546006548461097b91906134b5565b6109859190613526565b90506000600a546007548561099a91906134b5565b6109a49190613526565b905060008183856109b591906135c3565b6109bf91906135c3565b9050600b60009054906101000a900473ffffffffffffffffffffffffffffffffffffffff1673ffffffffffffffffffffffffffffffffffffffff168673ffffffffffffffffffffffffffffffffffffffff1603610cbd578573ffffffffffffffffffffffffffffffffffffffff166323b872dd3330846040518463ffffffff1660e01b8152600401610a53939291906135f7565b6020604051808303816000875af1158015610a72573d6000803e3d6000fd5b505050506040513d601f19601f82011682018060405250810190610a96919061365a565b610ad5576040517f08c379a0000000000000000000000000000000000000000000000000000000008152600401610acc906136d3565b60405180910390fd5b8573ffffffffffffffffffffffffffffffffffffffff1663a9059cbb600860009054906101000a900473ffffffffffffffffffffffffffffffffffffffff16856040518363ffffffff1660e01b8152600401610b329291906136f3565b6020604051808303816000875af1158015610b51573d6000803e3d6000fd5b505050506040513d601f19601f82011682018060405250810190610b75919061365a565b508573ffffffffffffffffffffffffffffffffffffffff1663a9059cbb600960009054906101000a900473ffffffffffffffffffffffffffffffffffffffff16846040518363ffffffff1660e01b8152600401610bd39291906136f3565b6020604051808303816000875af1158015610bf2573d6000803e3d6000fd5b505050506040513d601f19601f82011682018060405250810190610c16919061365a565b508573ffffffffffffffffffffffffffffffffffffffff1663a9059cbb600d60009054906101000a900473ffffffffffffffffffffffffffffffffffffffff16866040518363ffffffff1660e01b8152600401610c749291906136f3565b6020604051808303816000875af1158015610c93573d6000803e3d6000fd5b505050506040513d601f19601f82011682018060405250810190610cb7919061365a565b50611675565b600073ffffffffffffffffffffffffffffffffffffffff168673ffffffffffffffffffffffffffffffffffffffff1603611122576000610cfe600083611a25565b905060008111610d43576040517f08c379a0000000000000000000000000000000000000000000000000000000008152600401610d3a90613768565b60405180910390fd5b80341015610d86576040517f08c379a0000000000000000000000000000000000000000000000000000000008152600401610d7d906137d4565b60405180910390fd5b80341115610de1573373ffffffffffffffffffffffffffffffffffffffff166108fc8234610db491906137f4565b9081150290604051600060405180830381858888f19350505050158015610ddf573d6000803e3d6000fd5b505b610e327f00000000000000000000000000000000000000000000000000000000000000006000600b60009054906101000a900473ffffffffffffffffffffffffffffffffffffffff16848630612a8f565b600b60009054906101000a900473ffffffffffffffffffffffffffffffffffffffff1673ffffffffffffffffffffffffffffffffffffffff1663a9059cbb600860009054906101000a900473ffffffffffffffffffffffffffffffffffffffff16866040518363ffffffff1660e01b8152600401610eb19291906136f3565b6020604051808303816000875af1158015610ed0573d6000803e3d6000fd5b505050506040513d601f19601f82011682018060405250810190610ef4919061365a565b50600b60009054906101000a900473ffffffffffffffffffffffffffffffffffffffff1673ffffffffffffffffffffffffffffffffffffffff1663a9059cbb600d60009054906101000a900473ffffffffffffffffffffffffffffffffffffffff16876040518363ffffffff1660e01b8152600401610f749291906136f3565b6020604051808303816000875af1158015610f93573d6000803e3d6000fd5b505050506040513d601f19601f82011682018060405250810190610fb7919061365a565b506000600b60009054906101000a900473ffffffffffffffffffffffffffffffffffffffff1673ffffffffffffffffffffffffffffffffffffffff166370a08231306040518263ffffffff1660e01b815260040161101591906131fd565b602060405180830381865afa158015611032573d6000803e3d6000fd5b505050506040513d601f19601f82011682018060405250810190611056919061383d565b9050600b60009054906101000a900473ffffffffffffffffffffffffffffffffffffffff1673ffffffffffffffffffffffffffffffffffffffff1663a9059cbb600960009054906101000a900473ffffffffffffffffffffffffffffffffffffffff16836040518363ffffffff1660e01b81526004016110d79291906136f3565b6020604051808303816000875af11580156110f6573d6000803e3d6000fd5b505050506040513d601f19601f8201168201806040525081019061111a919061365a565b505050611674565b6000600f60008873ffffffffffffffffffffffffffffffffffffffff1673ffffffffffffffffffffffffffffffffffffffff1681526020019081526020016000206040518060400160405290816000820160009054906101000a900473ffffffffffffffffffffffffffffffffffffffff1673ffffffffffffffffffffffffffffffffffffffff1673ffffffffffffffffffffffffffffffffffffffff1681526020016001820154815250509050600073ffffffffffffffffffffffffffffffffffffffff16816000015173ffffffffffffffffffffffffffffffffffffffff1603611243576040517f08c379a000000000000000000000000000000000000000000000000000000000815260040161123a906138b6565b60405180910390fd5b600061124f8884611a25565b905060008111611294576040517f08c379a000000000000000000000000000000000000000000000000000000000815260040161128b90613922565b60405180910390fd5b8773ffffffffffffffffffffffffffffffffffffffff166323b872dd3330846040518463ffffffff1660e01b81526004016112d1939291906135f7565b6020604051808303816000875af11580156112f0573d6000803e3d6000fd5b505050506040513d601f19601f82011682018060405250810190611314919061365a565b611353576040517f08c379a000000000000000000000000000000000000000000000000000000000815260040161134a906136d3565b60405180910390fd5b611387826020015189600b60009054906101000a900473ffffffffffffffffffffffffffffffffffffffff16848730612a8f565b600b60009054906101000a900473ffffffffffffffffffffffffffffffffffffffff1673ffffffffffffffffffffffffffffffffffffffff1663a9059cbb600860009054906101000a900473ffffffffffffffffffffffffffffffffffffffff16876040518363ffffffff1660e01b81526004016114069291906136f3565b6020604051808303816000875af1158015611425573d6000803e3d6000fd5b505050506040513d601f19601f82011682018060405250810190611449919061365a565b50600b60009054906101000a900473ffffffffffffffffffffffffffffffffffffffff1673ffffffffffffffffffffffffffffffffffffffff1663a9059cbb600d60009054906101000a900473ffffffffffffffffffffffffffffffffffffffff16886040518363ffffffff1660e01b81526004016114c99291906136f3565b6020604051808303816000875af11580156114e8573d6000803e3d6000fd5b505050506040513d601f19601f8201168201806040525081019061150c919061365a565b506000600b60009054906101000a900473ffffffffffffffffffffffffffffffffffffffff1673ffffffffffffffffffffffffffffffffffffffff166370a08231306040518263ffffffff1660e01b815260040161156a91906131fd565b602060405180830381865afa158015611587573d6000803e3d6000fd5b505050506040513d601f19601f820116820180604052508101906115ab919061383d565b9050600b60009054906101000a900473ffffffffffffffffffffffffffffffffffffffff1673ffffffffffffffffffffffffffffffffffffffff1663a9059cbb600960009054906101000a900473ffffffffffffffffffffffffffffffffffffffff16836040518363ffffffff1660e01b815260040161162c9291906136f3565b6020604051808303816000875af115801561164b573d6000803e3d6000fd5b505050506040513d601f19601f8201168201806040525081019061166f919061365a565b505050505b5b84601060003373ffffffffffffffffffffffffffffffffffffffff1673ffffffffffffffffffffffffffffffffffffffff16815260200190815260200160002060000160008282546116c791906135c3565b9250508190555042601060003373ffffffffffffffffffffffffffffffffffffffff1673ffffffffffffffffffffffffffffffffffffffff168152602001908152602001600020600101819055503373ffffffffffffffffffffffffffffffffffffffff167f1da04c1b02057648c0a5ab384b68f07d8bd1eef9ef1917857ee32c1f2f022c8f868860405161175d929190613942565b60405180910390a250505050611771612e84565b5050565b61177d612978565b60008111801561178f57506103e88111155b6117ce576040517f08c379a00000000000000000000000000000000000000000000000000000000081526004016117c5906139dd565b60405180910390fd5b80600e819055507fe4a7fd2711237e77309a9a16ff636a748dbf956fd91f6e6da800d9302f441a798160405161180491906130df565b60405180910390a150565b60055481565b61181d612978565b60008111611860576040517f08c379a000000000000000000000000000000000000000000000000000000000815260040161185790613a49565b60405180910390fd5b600a548161186e91906134b5565b6005819055506127106103e860055461188791906134b5565b6118919190613526565b6006819055507f363d59dcb323765d70701aebfa921f06b49006fa71f649fc1128bc9e90b65560816040516118c691906130df565b60405180910390a150565b6118d9612978565b600073ffffffffffffffffffffffffffffffffffffffff168173ffffffffffffffffffffffffffffffffffffffff1603611948576040517f08c379a000000000000000000000000000000000000000000000000000000000815260040161193f90613ab5565b60405180910390fd5b80600b60006101000a81548173ffffffffffffffffffffffffffffffffffffffff021916908373ffffffffffffffffffffffffffffffffffffffff1602179055507fcbef0deb18e9216c7297a02135bde4ac33cb44c37641def726f3fb8c418c265d816040516119b891906131fd565b60405180910390a150565b60106020528060005260406000206000915090508060000154908060010154905082565b600860009054906101000a900473ffffffffffffffffffffffffffffffffffffffff1681565b600a5481565b611a1b612978565b611a23612e8d565b565b60008073ffffffffffffffffffffffffffffffffffffffff16600b60009054906101000a900473ffffffffffffffffffffffffffffffffffffffff1673ffffffffffffffffffffffffffffffffffffffff1603611ab7576040517f08c379a0000000000000000000000000000000000000000000000000000000008152600401611aae90613b21565b60405180910390fd5b600060055411611afc576040517f08c379a0000000000000000000000000000000000000000000000000000000008152600401611af390613b8d565b60405180910390fd5b600b60009054906101000a900473ffffffffffffffffffffffffffffffffffffffff1673ffffffffffffffffffffffffffffffffffffffff168373ffffffffffffffffffffffffffffffffffffffff1603611b5957819050611edb565b600073ffffffffffffffffffffffffffffffffffffffff168373ffffffffffffffffffffffffffffffffffffffff1603611cc35760007f000000000000000000000000000000000000000000000000000000000000000090506000600360009054906101000a900473ffffffffffffffffffffffffffffffffffffffff1673ffffffffffffffffffffffffffffffffffffffff1663fbfecffa837f0000000000000000000000000000000000000000000000000000000000000000876040518463ffffffff1660e01b8152600401611c3393929190613bad565b602060405180830381865afa158015611c50573d6000803e3d6000fd5b505050506040513d601f19601f82011682018060405250810190611c74919061383d565b905060008111611cb9576040517f08c379a0000000000000000000000000000000000000000000000000000000008152600401611cb090613c30565b60405180910390fd5b8092505050611edb565b6000600f60008573ffffffffffffffffffffffffffffffffffffffff1673ffffffffffffffffffffffffffffffffffffffff1681526020019081526020016000206040518060400160405290816000820160009054906101000a900473ffffffffffffffffffffffffffffffffffffffff1673ffffffffffffffffffffffffffffffffffffffff1673ffffffffffffffffffffffffffffffffffffffff1681526020016001820154815250509050600073ffffffffffffffffffffffffffffffffffffffff16816000015173ffffffffffffffffffffffffffffffffffffffff1603611de4576040517f08c379a0000000000000000000000000000000000000000000000000000000008152600401611ddb906138b6565b60405180910390fd5b6000816020015190506000600360009054906101000a900473ffffffffffffffffffffffffffffffffffffffff1673ffffffffffffffffffffffffffffffffffffffff1663fbfecffa8388886040518463ffffffff1660e01b8152600401611e4e93929190613bad565b602060405180830381865afa158015611e6b573d6000803e3d6000fd5b505050506040513d601f19601f82011682018060405250810190611e8f919061383d565b905060008111611ed4576040517f08c379a0000000000000000000000000000000000000000000000000000000008152600401611ecb90613c9c565b60405180910390fd5b8093505050505b92915050565b6000600260009054906101000a900460ff16905090565b611f00612978565b600073ffffffffffffffffffffffffffffffffffffffff168173ffffffffffffffffffffffffffffffffffffffff1603611f6f576040517f08c379a0000000000000000000000000000000000000000000000000000000008152600401611f6690613d08565b60405180910390fd5b600073ffffffffffffffffffffffffffffffffffffffff16600f60008373ffffffffffffffffffffffffffffffffffffffff1673ffffffffffffffffffffffffffffffffffffffff16815260200190815260200160002060000160009054906101000a900473ffffffffffffffffffffffffffffffffffffffff1673ffffffffffffffffffffffffffffffffffffffff1603612040576040517f08c379a000000000000000000000000000000000000000000000000000000000815260040161203790613d74565b60405180910390fd5b600f60008273ffffffffffffffffffffffffffffffffffffffff1673ffffffffffffffffffffffffffffffffffffffff168152602001908152602001600020600080820160006101000a81549073ffffffffffffffffffffffffffffffffffffffff02191690556001820160009055505050565b600d60009054906101000a900473ffffffffffffffffffffffffffffffffffffffff1681565b6120e2612978565b600073ffffffffffffffffffffffffffffffffffffffff168173ffffffffffffffffffffffffffffffffffffffff1603612151576040517f08c379a000000000000000000000000000000000000000000000000000000000815260040161214890613de0565b60405180910390fd5b80600860006101000a81548173ffffffffffffffffffffffffffffffffffffffff021916908373ffffffffffffffffffffffffffffffffffffffff1602179055507f6f7172587e2ee3573d0b3f6c2690ecc9a891b65835a094530cab8fe127725bd4816040516121c191906131fd565b60405180910390a150565b600f6020528060005260406000206000915090508060000160009054906101000a900473ffffffffffffffffffffffffffffffffffffffff16908060010154905082565b612218612978565b600073ffffffffffffffffffffffffffffffffffffffff168173ffffffffffffffffffffffffffffffffffffffff1603612287576040517f08c379a000000000000000000000000000000000000000000000000000000000815260040161227e90613e4c565b60405180910390fd5b80600960006101000a81548173ffffffffffffffffffffffffffffffffffffffff021916908373ffffffffffffffffffffffffffffffffffffffff1602179055507f5a272403b402d892977df56625f4164ccaf70ca3863991c43ecfe76a6905b0a1816040516122f791906131fd565b60405180910390a150565b61230a612978565b6123146000612ef0565b565b61231e612978565b612326612fb4565b565b612330612978565b600073ffffffffffffffffffffffffffffffffffffffff168173ffffffffffffffffffffffffffffffffffffffff160361239f576040517f08c379a000000000000000000000000000000000000000000000000000000000815260040161239690613eb8565b60405180910390fd5b80600d60006101000a81548173ffffffffffffffffffffffffffffffffffffffff021916908373ffffffffffffffffffffffffffffffffffffffff1602179055507fa2ba023b30d8cddf435cdab9543b58eb8af9ffff038165926e347dc7198ef6948160405161240f91906131fd565b60405180910390a150565b6000612710600e548361242d91906134b5565b6124379190613526565b8261244291906137f4565b9050919050565b60008060009054906101000a900473ffffffffffffffffffffffffffffffffffffffff16905090565b60075481565b612480612978565b600073ffffffffffffffffffffffffffffffffffffffff168173ffffffffffffffffffffffffffffffffffffffff16036124ef576040517f08c379a00000000000000000000000000000000000000000000000000000000081526004016124e690613f24565b60405180910390fd5b80600360006101000a81548173ffffffffffffffffffffffffffffffffffffffff021916908373ffffffffffffffffffffffffffffffffffffffff16021790555050565b600360009054906101000a900473ffffffffffffffffffffffffffffffffffffffff1681565b7f000000000000000000000000000000000000000000000000000000000000000081565b612585612978565b600073ffffffffffffffffffffffffffffffffffffffff168273ffffffffffffffffffffffffffffffffffffffff16036125f4576040517f08c379a00000000000000000000000000000000000000000000000000000000081526004016125eb90613d08565b60405180910390fd5b600073ffffffffffffffffffffffffffffffffffffffff16600f60008473ffffffffffffffffffffffffffffffffffffffff1673ffffffffffffffffffffffffffffffffffffffff16815260200190815260200160002060000160009054906101000a900473ffffffffffffffffffffffffffffffffffffffff1673ffffffffffffffffffffffffffffffffffffffff16146126c5576040517f08c379a00000000000000000000000000000000000000000000000000000000081526004016126bc90613f90565b60405180910390fd5b60405180604001604052808373ffffffffffffffffffffffffffffffffffffffff16815260200182815250600f60008473ffffffffffffffffffffffffffffffffffffffff1673ffffffffffffffffffffffffffffffffffffffff16815260200190815260200160002060008201518160000160006101000a81548173ffffffffffffffffffffffffffffffffffffffff021916908373ffffffffffffffffffffffffffffffffffffffff160217905550602082015181600101559050505050565b61278f612978565b600081116127d2576040517f08c379a00000000000000000000000000000000000000000000000000000000081526004016127c990613ffc565b60405180910390fd5b612710600a54826127e391906134b5565b6127ed9190613526565b6007819055507f34505dd6ab044e35f6f8c9c0eca3ff65ec19cf6159d61bf79708ccacba6fe1208160405161282291906130df565b60405180910390a150565b600b60009054906101000a900473ffffffffffffffffffffffffffffffffffffffff1681565b600e5481565b60065481565b7f000000000000000000000000000000000000000000000000000000000000000081565b61288b612978565b600073ffffffffffffffffffffffffffffffffffffffff168173ffffffffffffffffffffffffffffffffffffffff16036128fa576040517f08c379a00000000000000000000000000000000000000000000000000000000081526004016128f19061408e565b60405180910390fd5b61290381612ef0565b50565b600960009054906101000a900473ffffffffffffffffffffffffffffffffffffffff1681565b600460009054906101000a900473ffffffffffffffffffffffffffffffffffffffff1681565b600260019054906101000a900473ffffffffffffffffffffffffffffffffffffffff1681565b612980613017565b73ffffffffffffffffffffffffffffffffffffffff1661299e612449565b73ffffffffffffffffffffffffffffffffffffffff16146129f4576040517f08c379a00000000000000000000000000000000000000000000000000000000081526004016129eb906140fa565b60405180910390fd5b565b6129fe611ee1565b15612a3e576040517f08c379a0000000000000000000000000000000000000000000000000000000008152600401612a3590614166565b60405180910390fd5b565b600260015403612a85576040517f08c379a0000000000000000000000000000000000000000000000000000000008152600401612a7c906141d2565b60405180910390fd5b6002600181905550565b60008073ffffffffffffffffffffffffffffffffffffffff168673ffffffffffffffffffffffffffffffffffffffff16149050600081612acf5786612af1565b7f00000000000000000000000000000000000000000000000000000000000000005b90506000612afe8561241a565b90508215612c4d577f000000000000000000000000000000000000000000000000000000000000000073ffffffffffffffffffffffffffffffffffffffff1663d0e30db0876040518263ffffffff1660e01b81526004016000604051808303818588803b158015612b6e57600080fd5b505af1158015612b82573d6000803e3d6000fd5b50505050507f000000000000000000000000000000000000000000000000000000000000000073ffffffffffffffffffffffffffffffffffffffff1663095ea7b3600460009054906101000a900473ffffffffffffffffffffffffffffffffffffffff16886040518363ffffffff1660e01b8152600401612c049291906136f3565b6020604051808303816000875af1158015612c23573d6000803e3d6000fd5b505050506040513d601f19601f82011682018060405250810190612c47919061365a565b50612cef565b8773ffffffffffffffffffffffffffffffffffffffff1663095ea7b3600460009054906101000a900473ffffffffffffffffffffffffffffffffffffffff16886040518363ffffffff1660e01b8152600401612caa9291906136f3565b6020604051808303816000875af1158015612cc9573d6000803e3d6000fd5b505050506040513d601f19601f82011682018060405250810190612ced919061365a565b505b60006040518060c001604052808b815260200160006001811115612d1657612d156141f2565b5b81526020018473ffffffffffffffffffffffffffffffffffffffff1681526020018973ffffffffffffffffffffffffffffffffffffffff168152602001888152602001604051806020016040528060008152508152509050600060405180608001604052803073ffffffffffffffffffffffffffffffffffffffff1681526020016000151581526020018773ffffffffffffffffffffffffffffffffffffffff168152602001600015158152509050600460009054906101000a900473ffffffffffffffffffffffffffffffffffffffff1673ffffffffffffffffffffffffffffffffffffffff166352bbbe2983838661025842612e1491906135c3565b6040518563ffffffff1660e01b8152600401612e339493929190614455565b6020604051808303816000875af1158015612e52573d6000803e3d6000fd5b505050506040513d601f19601f82011682018060405250810190612e76919061383d565b505050505050505050505050565b60018081905550565b612e9561301f565b6000600260006101000a81548160ff0219169083151502179055507f5db9ee0a495bf2e6ff9c91a7834c1ba4fdd244a5e8aa4e537bd38aeae4b073aa612ed9613017565b604051612ee691906131fd565b60405180910390a1565b60008060009054906101000a900473ffffffffffffffffffffffffffffffffffffffff169050816000806101000a81548173ffffffffffffffffffffffffffffffffffffffff021916908373ffffffffffffffffffffffffffffffffffffffff1602179055508173ffffffffffffffffffffffffffffffffffffffff168173ffffffffffffffffffffffffffffffffffffffff167f8be0079c531659141344cd1fd0a4f28419497f9722a3daafe3b4186f6b6457e060405160405180910390a35050565b612fbc6129f6565b6001600260006101000a81548160ff0219169083151502179055507f62e78cea01bee320cd4e420270b5ea74000d11b0c9f74754ebdbfc544b05a258613000613017565b60405161300d91906131fd565b60405180910390a1565b600033905090565b613027611ee1565b613066576040517f08c379a000000000000000000000000000000000000000000000000000000000815260040161305d906144ed565b60405180910390fd5b565b600080fd5b6000819050919050565b6130808161306d565b811461308b57600080fd5b50565b60008135905061309d81613077565b92915050565b6000602082840312156130b9576130b8613068565b5b60006130c78482850161308e565b91505092915050565b6130d98161306d565b82525050565b60006020820190506130f460008301846130d0565b92915050565b600073ffffffffffffffffffffffffffffffffffffffff82169050919050565b6000613125826130fa565b9050919050565b6131358161311a565b811461314057600080fd5b50565b6000813590506131528161312c565b92915050565b6000806040838503121561316f5761316e613068565b5b600061317d85828601613143565b925050602061318e8582860161308e565b9150509250929050565b6000602082840312156131ae576131ad613068565b5b60006131bc84828501613143565b91505092915050565b60006040820190506131da60008301856130d0565b6131e760208301846130d0565b9392505050565b6131f78161311a565b82525050565b600060208201905061321260008301846131ee565b92915050565b60008115159050919050565b61322d81613218565b82525050565b60006020820190506132486000830184613224565b92915050565b6000819050919050565b6132618161324e565b82525050565b600060408201905061327c60008301856131ee565b6132896020830184613258565b9392505050565b6000819050919050565b60006132b56132b06132ab846130fa565b613290565b6130fa565b9050919050565b60006132c78261329a565b9050919050565b60006132d9826132bc565b9050919050565b6132e9816132ce565b82525050565b600060208201905061330460008301846132e0565b92915050565b6133138161324e565b811461331e57600080fd5b50565b6000813590506133308161330a565b92915050565b6000806040838503121561334d5761334c613068565b5b600061335b85828601613143565b925050602061336c85828601613321565b9150509250929050565b600060208201905061338b6000830184613258565b92915050565b600061339c826132bc565b9050919050565b6133ac81613391565b82525050565b60006020820190506133c760008301846133a3565b92915050565b60006133d8826132bc565b9050919050565b6133e8816133cd565b82525050565b600060208201905061340360008301846133df565b92915050565b600082825260208201905092915050565b7f4d61782032302500000000000000000000000000000000000000000000000000600082015250565b6000613450600783613409565b915061345b8261341a565b602082019050919050565b6000602082019050818103600083015261347f81613443565b9050919050565b7f4e487b7100000000000000000000000000000000000000000000000000000000600052601160045260246000fd5b60006134c08261306d565b91506134cb8361306d565b92508282026134d98161306d565b915082820484148315176134f0576134ef613486565b5b5092915050565b7f4e487b7100000000000000000000000000000000000000000000000000000000600052601260045260246000fd5b60006135318261306d565b915061353c8361306d565b92508261354c5761354b6134f7565b5b828204905092915050565b7f496e76616c696420616d6f756e74000000000000000000000000000000000000600082015250565b600061358d600e83613409565b915061359882613557565b602082019050919050565b600060208201905081810360008301526135bc81613580565b9050919050565b60006135ce8261306d565b91506135d98361306d565b92508282019050808211156135f1576135f0613486565b5b92915050565b600060608201905061360c60008301866131ee565b61361960208301856131ee565b61362660408301846130d0565b949350505050565b61363781613218565b811461364257600080fd5b50565b6000815190506136548161362e565b92915050565b6000602082840312156136705761366f613068565b5b600061367e84828501613645565b91505092915050565b7f5472616e73666572206661696c65640000000000000000000000000000000000600082015250565b60006136bd600f83613409565b91506136c882613687565b602082019050919050565b600060208201905081810360008301526136ec816136b0565b9050919050565b600060408201905061370860008301856131ee565b61371560208301846130d0565b9392505050565b7f496e76616c69642045544820616d6f756e740000000000000000000000000000600082015250565b6000613752601283613409565b915061375d8261371c565b602082019050919050565b6000602082019050818103600083015261378181613745565b9050919050565b7f496e73756666696369656e74204554482073656e740000000000000000000000600082015250565b60006137be601583613409565b91506137c982613788565b602082019050919050565b600060208201905081810360008301526137ed816137b1565b9050919050565b60006137ff8261306d565b915061380a8361306d565b925082820390508181111561382257613821613486565b5b92915050565b60008151905061383781613077565b92915050565b60006020828403121561385357613852613068565b5b600061386184828501613828565b91505092915050565b7f546f6b656e206e6f7420737570706f7274656400000000000000000000000000600082015250565b60006138a0601383613409565b91506138ab8261386a565b602082019050919050565b600060208201905081810360008301526138cf81613893565b9050919050565b7f496e76616c696420746f6b656e20616d6f756e74000000000000000000000000600082015250565b600061390c601483613409565b9150613917826138d6565b602082019050919050565b6000602082019050818103600083015261393b816138ff565b9050919050565b600060408201905061395760008301856130d0565b61396460208301846131ee565b9392505050565b7f496e76616c696420736c6970706167653a206d7573742062652062657477656560008201527f6e20302520616e64203130250000000000000000000000000000000000000000602082015250565b60006139c7602c83613409565b91506139d28261396b565b604082019050919050565b600060208201905081810360008301526139f6816139ba565b9050919050565b7f496e76616c6964207469636b6574207072696365000000000000000000000000600082015250565b6000613a33601483613409565b9150613a3e826139fd565b602082019050919050565b60006020820190508181036000830152613a6281613a26565b9050919050565b7f496e76616c6964206261736520746f6b656e2061646472657373000000000000600082015250565b6000613a9f601a83613409565b9150613aaa82613a69565b602082019050919050565b60006020820190508181036000830152613ace81613a92565b9050919050565b7f4261736520746f6b656e206e6f74207365740000000000000000000000000000600082015250565b6000613b0b601283613409565b9150613b1682613ad5565b602082019050919050565b60006020820190508181036000830152613b3a81613afe565b9050919050565b7f5469636b6574207072696365206e6f7420736574000000000000000000000000600082015250565b6000613b77601483613409565b9150613b8282613b41565b602082019050919050565b60006020820190508181036000830152613ba681613b6a565b9050919050565b6000606082019050613bc26000830186613258565b613bcf60208301856131ee565b613bdc60408301846130d0565b949350505050565b7f496e76616c696420455448207072696365000000000000000000000000000000600082015250565b6000613c1a601183613409565b9150613c2582613be4565b602082019050919050565b60006020820190508181036000830152613c4981613c0d565b9050919050565b7f496e76616c696420746f6b656e20707269636500000000000000000000000000600082015250565b6000613c86601383613409565b9150613c9182613c50565b602082019050919050565b60006020820190508181036000830152613cb581613c79565b9050919050565b7f496e76616c696420746f6b656e20616464726573730000000000000000000000600082015250565b6000613cf2601583613409565b9150613cfd82613cbc565b602082019050919050565b60006020820190508181036000830152613d2181613ce5565b9050919050565b7f546f6b656e20646f6573206e6f74206578697374000000000000000000000000600082015250565b6000613d5e601483613409565b9150613d6982613d28565b602082019050919050565b60006020820190508181036000830152613d8d81613d51565b9050919050565b7f496e76616c6964207465616d2061646472657373000000000000000000000000600082015250565b6000613dca601483613409565b9150613dd582613d94565b602082019050919050565b60006020820190508181036000830152613df981613dbd565b9050919050565b7f496e76616c69642061646d696e20616464726573730000000000000000000000600082015250565b6000613e36601583613409565b9150613e4182613e00565b602082019050919050565b60006020820190508181036000830152613e6581613e29565b9050919050565b7f496e76616c6964205661756c7420616464726573730000000000000000000000600082015250565b6000613ea2601583613409565b9150613ead82613e6c565b602082019050919050565b60006020820190508181036000830152613ed181613e95565b9050919050565b7f496e76616c696420737761702071756f74652071756572792061646472657373600082015250565b6000613f0e602083613409565b9150613f1982613ed8565b602082019050919050565b60006020820190508181036000830152613f3d81613f01565b9050919050565b7f546f6b656e20616c726561647920657869737473000000000000000000000000600082015250565b6000613f7a601483613409565b9150613f8582613f44565b602082019050919050565b60006020820190508181036000830152613fa981613f6d565b9050919050565b7f496e76616c6964204f5a20666565730000000000000000000000000000000000600082015250565b6000613fe6600f83613409565b9150613ff182613fb0565b602082019050919050565b6000602082019050818103600083015261401581613fd9565b9050919050565b7f4f776e61626c653a206e6577206f776e657220697320746865207a65726f206160008201527f6464726573730000000000000000000000000000000000000000000000000000602082015250565b6000614078602683613409565b91506140838261401c565b604082019050919050565b600060208201905081810360008301526140a78161406b565b9050919050565b7f4f776e61626c653a2063616c6c6572206973206e6f7420746865206f776e6572600082015250565b60006140e4602083613409565b91506140ef826140ae565b602082019050919050565b60006020820190508181036000830152614113816140d7565b9050919050565b7f5061757361626c653a2070617573656400000000000000000000000000000000600082015250565b6000614150601083613409565b915061415b8261411a565b602082019050919050565b6000602082019050818103600083015261417f81614143565b9050919050565b7f5265656e7472616e637947756172643a207265656e7472616e742063616c6c00600082015250565b60006141bc601f83613409565b91506141c782614186565b602082019050919050565b600060208201905081810360008301526141eb816141af565b9050919050565b7f4e487b7100000000000000000000000000000000000000000000000000000000600052602160045260246000fd5b61422a8161324e565b82525050565b60028110614241576142406141f2565b5b50565b600081905061425282614230565b919050565b600061426282614244565b9050919050565b61427281614257565b82525050565b6000614283826132bc565b9050919050565b61429381614278565b82525050565b6142a28161306d565b82525050565b600081519050919050565b600082825260208201905092915050565b60005b838110156142e25780820151818401526020810190506142c7565b60008484015250505050565b6000601f19601f8301169050919050565b600061430a826142a8565b61431481856142b3565b93506143248185602086016142c4565b61432d816142ee565b840191505092915050565b600060c0830160008301516143506000860182614221565b5060208301516143636020860182614269565b506040830151614376604086018261428a565b506060830151614389606086018261428a565b50608083015161439c6080860182614299565b5060a083015184820360a08601526143b482826142ff565b9150508091505092915050565b6143ca8161311a565b82525050565b6143d981613218565b82525050565b60006143ea826130fa565b9050919050565b6143fa816143df565b82525050565b60808201600082015161441660008501826143c1565b50602082015161442960208501826143d0565b50604082015161443c60408501826143f1565b50606082015161444f60608501826143d0565b50505050565b600060e082019050818103600083015261446f8187614338565b905061447e6020830186614400565b61448b60a08301856130d0565b61449860c08301846130d0565b95945050505050565b7f5061757361626c653a206e6f7420706175736564000000000000000000000000600082015250565b60006144d7601483613409565b91506144e2826144a1565b602082019050919050565b60006020820190508181036000830152614506816144ca565b905091905056fea26469706673582212202cfef12e511f6917414ca356c01388b77ffd8dc8af1f48be1a45aa22f692afe164736f6c634300081a0033",
  "linkReferences": {},
  "deployedLinkReferences": {}
}