{
  "_format": "hh-sol-artifact-1",
  "contractName": "TokenSwapper",
  "sourceName": "contracts/TokenSwapper.sol",
  "abi": [
    {
      "inputs": [
        {
          "internalType": "address",
          "name": "_vaultAddress",
          "type": "address"
        },
        {
          "internalType": "address",
          "name": "_WETH",
          "type": "address"
        }
      ],
      "stateMutability": "nonpayable",
      "type": "constructor"
    },
    {
      "inputs": [],
      "name": "WETH",
      "outputs": [
        {
          "internalType": "address",
          "name": "",
          "type": "address"
        }
      ],
      "stateMutability": "view",
      "type": "function"
    },
    {
      "inputs": [
        {
          "internalType": "bytes32",
          "name": "poolId",
          "type": "bytes32"
        },
        {
          "internalType": "address",
          "name": "tokenIn",
          "type": "address"
        },
        {
          "internalType": "address",
          "name": "tokenOut",
          "type": "address"
        },
        {
          "internalType": "uint256",
          "name": "amountIn",
          "type": "uint256"
        },
        {
          "internalType": "uint256",
          "name": "minAmountOut",
          "type": "uint256"
        }
      ],
      "name": "swapTokens",
      "outputs": [],
      "stateMutability": "payable",
      "type": "function"
    },
    {
      "inputs": [],
      "name": "vault",
      "outputs": [
        {
          "internalType": "contract IVault",
          "name": "",
          "type": "address"
        }
      ],
      "stateMutability": "view",
      "type": "function"
    },
    {
      "stateMutability": "payable",
      "type": "receive"
    }
  ],
  "bytecode": "0x60a060405234801561001057600080fd5b50604051610de4380380610de483398181016040528101906100329190610110565b816000806101000a81548173ffffffffffffffffffffffffffffffffffffffff021916908373ffffffffffffffffffffffffffffffffffffffff1602179055508073ffffffffffffffffffffffffffffffffffffffff1660808173ffffffffffffffffffffffffffffffffffffffff16815250505050610150565b600080fd5b600073ffffffffffffffffffffffffffffffffffffffff82169050919050565b60006100dd826100b2565b9050919050565b6100ed816100d2565b81146100f857600080fd5b50565b60008151905061010a816100e4565b92915050565b60008060408385031215610127576101266100ad565b5b6000610135858286016100fb565b9250506020610146858286016100fb565b9150509250929050565b608051610c6461018060003960008181610133015281816101b4015281816103d001526105550152610c646000f3fe6080604052600436106100385760003560e01c806338d73a0b14610044578063ad5c464814610060578063fbfa77cf1461008b5761003f565b3661003f57005b600080fd5b61005e6004803603810190610059919061066a565b6100b6565b005b34801561006c57600080fd5b50610075610553565b60405161008291906106f4565b60405180910390f35b34801561009757600080fd5b506100a0610577565b6040516100ad919061076e565b60405180910390f35b60008073ffffffffffffffffffffffffffffffffffffffff168573ffffffffffffffffffffffffffffffffffffffff16149050801561027657823414610131576040517f08c379a0000000000000000000000000000000000000000000000000000000008152600401610128906107e6565b60405180910390fd5b7f000000000000000000000000000000000000000000000000000000000000000073ffffffffffffffffffffffffffffffffffffffff1663d0e30db0346040518263ffffffff1660e01b81526004016000604051808303818588803b15801561019957600080fd5b505af11580156101ad573d6000803e3d6000fd5b50505050507f000000000000000000000000000000000000000000000000000000000000000073ffffffffffffffffffffffffffffffffffffffff1663095ea7b360008054906101000a900473ffffffffffffffffffffffffffffffffffffffff16856040518363ffffffff1660e01b815260040161022d929190610815565b6020604051808303816000875af115801561024c573d6000803e3d6000fd5b505050506040513d601f19601f820116820180604052508101906102709190610876565b50610397565b8473ffffffffffffffffffffffffffffffffffffffff166323b872dd3330866040518463ffffffff1660e01b81526004016102b3939291906108a3565b6020604051808303816000875af11580156102d2573d6000803e3d6000fd5b505050506040513d601f19601f820116820180604052508101906102f69190610876565b508473ffffffffffffffffffffffffffffffffffffffff1663095ea7b360008054906101000a900473ffffffffffffffffffffffffffffffffffffffff16856040518363ffffffff1660e01b8152600401610352929190610815565b6020604051808303816000875af1158015610371573d6000803e3d6000fd5b505050506040513d601f19601f820116820180604052508101906103959190610876565b505b60006040518060c00160405280888152602001600060018111156103be576103bd6108da565b5b8152602001836103ce57876103f0565b7f00000000000000000000000000000000000000000000000000000000000000005b73ffffffffffffffffffffffffffffffffffffffff1681526020018673ffffffffffffffffffffffffffffffffffffffff168152602001858152602001604051806020016040528060008152508152509050600060405180608001604052803073ffffffffffffffffffffffffffffffffffffffff1681526020016000151581526020013373ffffffffffffffffffffffffffffffffffffffff16815260200160001515815250905060008054906101000a900473ffffffffffffffffffffffffffffffffffffffff1673ffffffffffffffffffffffffffffffffffffffff166352bbbe29838387610258426104e69190610938565b6040518563ffffffff1660e01b81526004016105059493929190610ba0565b6020604051808303816000875af1158015610524573d6000803e3d6000fd5b505050506040513d601f19601f820116820180604052508101906105489190610c01565b505050505050505050565b7f000000000000000000000000000000000000000000000000000000000000000081565b60008054906101000a900473ffffffffffffffffffffffffffffffffffffffff1681565b600080fd5b6000819050919050565b6105b3816105a0565b81146105be57600080fd5b50565b6000813590506105d0816105aa565b92915050565b600073ffffffffffffffffffffffffffffffffffffffff82169050919050565b6000610601826105d6565b9050919050565b610611816105f6565b811461061c57600080fd5b50565b60008135905061062e81610608565b92915050565b6000819050919050565b61064781610634565b811461065257600080fd5b50565b6000813590506106648161063e565b92915050565b600080600080600060a086880312156106865761068561059b565b5b6000610694888289016105c1565b95505060206106a58882890161061f565b94505060406106b68882890161061f565b93505060606106c788828901610655565b92505060806106d888828901610655565b9150509295509295909350565b6106ee816105f6565b82525050565b600060208201905061070960008301846106e5565b92915050565b6000819050919050565b600061073461072f61072a846105d6565b61070f565b6105d6565b9050919050565b600061074682610719565b9050919050565b60006107588261073b565b9050919050565b6107688161074d565b82525050565b6000602082019050610783600083018461075f565b92915050565b600082825260208201905092915050565b7f496e636f72726563742045544820616d6f756e742073656e7400000000000000600082015250565b60006107d0601983610789565b91506107db8261079a565b602082019050919050565b600060208201905081810360008301526107ff816107c3565b9050919050565b61080f81610634565b82525050565b600060408201905061082a60008301856106e5565b6108376020830184610806565b9392505050565b60008115159050919050565b6108538161083e565b811461085e57600080fd5b50565b6000815190506108708161084a565b92915050565b60006020828403121561088c5761088b61059b565b5b600061089a84828501610861565b91505092915050565b60006060820190506108b860008301866106e5565b6108c560208301856106e5565b6108d26040830184610806565b949350505050565b7f4e487b7100000000000000000000000000000000000000000000000000000000600052602160045260246000fd5b7f4e487b7100000000000000000000000000000000000000000000000000000000600052601160045260246000fd5b600061094382610634565b915061094e83610634565b925082820190508082111561096657610965610909565b5b92915050565b610975816105a0565b82525050565b6002811061098c5761098b6108da565b5b50565b600081905061099d8261097b565b919050565b60006109ad8261098f565b9050919050565b6109bd816109a2565b82525050565b60006109ce8261073b565b9050919050565b6109de816109c3565b82525050565b6109ed81610634565b82525050565b600081519050919050565b600082825260208201905092915050565b60005b83811015610a2d578082015181840152602081019050610a12565b60008484015250505050565b6000601f19601f8301169050919050565b6000610a55826109f3565b610a5f81856109fe565b9350610a6f818560208601610a0f565b610a7881610a39565b840191505092915050565b600060c083016000830151610a9b600086018261096c565b506020830151610aae60208601826109b4565b506040830151610ac160408601826109d5565b506060830151610ad460608601826109d5565b506080830151610ae760808601826109e4565b5060a083015184820360a0860152610aff8282610a4a565b9150508091505092915050565b610b15816105f6565b82525050565b610b248161083e565b82525050565b6000610b35826105d6565b9050919050565b610b4581610b2a565b82525050565b608082016000820151610b616000850182610b0c565b506020820151610b746020850182610b1b565b506040820151610b876040850182610b3c565b506060820151610b9a6060850182610b1b565b50505050565b600060e0820190508181036000830152610bba8187610a83565b9050610bc96020830186610b4b565b610bd660a0830185610806565b610be360c0830184610806565b95945050505050565b600081519050610bfb8161063e565b92915050565b600060208284031215610c1757610c1661059b565b5b6000610c2584828501610bec565b9150509291505056fea2646970667358221220eedee8ee9f101297065bf3c6093fd5a7a2352649716c0aa68de21d5104f97b0564736f6c634300081a0033",
  "linkReferences": {},
  "deployedLinkReferences": {}
}