{
  "_format": "hh-sol-artifact-1",
  "contractName": "SwapQuoteQuery",
  "sourceName": "contracts/SwapQuoteQuery.sol",
  "abi": [
    {
      "inputs": [
        {
          "internalType": "address",
          "name": "_honey",
          "type": "address"
        },
        {
          "internalType": "address",
          "name": "_bera",
          "type": "address"
        },
        {
          "internalType": "address",
          "name": "_vaultAddress",
          "type": "address"
        }
      ],
      "stateMutability": "nonpayable",
      "type": "constructor"
    },
    {
      "inputs": [],
      "name": "HONEY",
      "outputs": [
        {
          "internalType": "address",
          "name": "",
          "type": "address"
        }
      ],
      "stateMutability": "view",
      "type": "function"
    },
    {
      "inputs": [],
      "name": "WBERA",
      "outputs": [
        {
          "internalType": "address",
          "name": "",
          "type": "address"
        }
      ],
      "stateMutability": "view",
      "type": "function"
    },
    {
      "inputs": [
        {
          "internalType": "bytes32",
          "name": "poolId",
          "type": "bytes32"
        }
      ],
      "name": "getPoolDetails",
      "outputs": [
        {
          "internalType": "contract IERC20[]",
          "name": "tokens",
          "type": "address[]"
        },
        {
          "internalType": "uint256[]",
          "name": "balances",
          "type": "uint256[]"
        },
        {
          "internalType": "uint256",
          "name": "lastChangeBlock",
          "type": "uint256"
        }
      ],
      "stateMutability": "view",
      "type": "function"
    },
    {
      "inputs": [
        {
          "internalType": "bytes32",
          "name": "poolId",
          "type": "bytes32"
        },
        {
          "internalType": "address",
          "name": "token",
          "type": "address"
        },
        {
          "internalType": "uint256",
          "name": "amount",
          "type": "uint256"
        }
      ],
      "name": "getPriceForToken",
      "outputs": [
        {
          "internalType": "uint256",
          "name": "",
          "type": "uint256"
        }
      ],
      "stateMutability": "view",
      "type": "function"
    },
    {
      "inputs": [],
      "name": "vault",
      "outputs": [
        {
          "internalType": "contract IPrice",
          "name": "",
          "type": "address"
        }
      ],
      "stateMutability": "view",
      "type": "function"
    }
  ],
  "bytecode": "0x608060405234801561001057600080fd5b506040516111853803806111858339818101604052810190610032919061015f565b806000806101000a81548173ffffffffffffffffffffffffffffffffffffffff021916908373ffffffffffffffffffffffffffffffffffffffff16021790555081600160006101000a81548173ffffffffffffffffffffffffffffffffffffffff021916908373ffffffffffffffffffffffffffffffffffffffff16021790555082600260006101000a81548173ffffffffffffffffffffffffffffffffffffffff021916908373ffffffffffffffffffffffffffffffffffffffff1602179055505050506101b2565b600080fd5b600073ffffffffffffffffffffffffffffffffffffffff82169050919050565b600061012c82610101565b9050919050565b61013c81610121565b811461014757600080fd5b50565b60008151905061015981610133565b92915050565b600080600060608486031215610178576101776100fc565b5b60006101868682870161014a565b93505060206101978682870161014a565b92505060406101a88682870161014a565b9150509250925092565b610fc4806101c16000396000f3fe608060405234801561001057600080fd5b50600436106100575760003560e01c80631b29e7b91461005c5780632f06367e1461008e578063a0417bad146100ac578063fbfa77cf146100ca578063fbfecffa146100e8575b600080fd5b610076600480360381019061007191906105f4565b610118565b60405161008593929190610826565b60405180910390f35b6100966101ca565b6040516100a3919061088c565b60405180910390f35b6100b46101f0565b6040516100c1919061088c565b60405180910390f35b6100d2610216565b6040516100df91906108c8565b60405180910390f35b61010260048036038101906100fd919061093b565b61023a565b60405161010f919061098e565b60405180910390f35b60608060008060009054906101000a900473ffffffffffffffffffffffffffffffffffffffff1673ffffffffffffffffffffffffffffffffffffffff1663f94d4668856040518263ffffffff1660e01b815260040161017791906109b8565b600060405180830381865afa158015610194573d6000803e3d6000fd5b505050506040513d6000823e3d601f19601f820116820180604052508101906101bd9190610c42565b9250925092509193909250565b600260009054906101000a900473ffffffffffffffffffffffffffffffffffffffff1681565b600160009054906101000a900473ffffffffffffffffffffffffffffffffffffffff1681565b60008054906101000a900473ffffffffffffffffffffffffffffffffffffffff1681565b60008060008060009054906101000a900473ffffffffffffffffffffffffffffffffffffffff1673ffffffffffffffffffffffffffffffffffffffff1663f94d4668876040518263ffffffff1660e01b815260040161029991906109b8565b600060405180830381865afa1580156102b6573d6000803e3d6000fd5b505050506040513d6000823e3d601f19601f820116820180604052508101906102df9190610c42565b509150915060007fffffffffffffffffffffffffffffffffffffffffffffffffffffffffffffffff905060007fffffffffffffffffffffffffffffffffffffffffffffffffffffffffffffffff905060005b845181101561040b57600260009054906101000a900473ffffffffffffffffffffffffffffffffffffffff1673ffffffffffffffffffffffffffffffffffffffff1685828151811061038657610385610ccd565b5b602002602001015173ffffffffffffffffffffffffffffffffffffffff16036103ad578092505b8773ffffffffffffffffffffffffffffffffffffffff168582815181106103d7576103d6610ccd565b5b602002602001015173ffffffffffffffffffffffffffffffffffffffff16036103fe578091505b8080600101915050610331565b506000821215610450576040517f08c379a000000000000000000000000000000000000000000000000000000000815260040161044790610d59565b60405180910390fd5b6000811215610494576040517f08c379a000000000000000000000000000000000000000000000000000000000815260040161048b90610dc5565b60405180910390fd5b60008383815181106104a9576104a8610ccd565b5b6020026020010151905060008483815181106104c8576104c7610ccd565b5b6020026020010151905060008211610515576040517f08c379a000000000000000000000000000000000000000000000000000000000815260040161050c90610e31565b60405180910390fd5b60008111610558576040517f08c379a000000000000000000000000000000000000000000000000000000000815260040161054f90610e9d565b60405180910390fd5b600082670de0b6b3a76400008361056f9190610eec565b6105799190610f5d565b9050670de0b6b3a7640000818a6105909190610eec565b61059a9190610f5d565b9750505050505050509392505050565b6000604051905090565b600080fd5b600080fd5b6000819050919050565b6105d1816105be565b81146105dc57600080fd5b50565b6000813590506105ee816105c8565b92915050565b60006020828403121561060a576106096105b4565b5b6000610618848285016105df565b91505092915050565b600081519050919050565b600082825260208201905092915050565b6000819050602082019050919050565b600073ffffffffffffffffffffffffffffffffffffffff82169050919050565b6000819050919050565b600061069261068d6106888461064d565b61066d565b61064d565b9050919050565b60006106a482610677565b9050919050565b60006106b682610699565b9050919050565b6106c6816106ab565b82525050565b60006106d883836106bd565b60208301905092915050565b6000602082019050919050565b60006106fc82610621565b610706818561062c565b93506107118361063d565b8060005b8381101561074257815161072988826106cc565b9750610734836106e4565b925050600181019050610715565b5085935050505092915050565b600081519050919050565b600082825260208201905092915050565b6000819050602082019050919050565b6000819050919050565b61078e8161077b565b82525050565b60006107a08383610785565b60208301905092915050565b6000602082019050919050565b60006107c48261074f565b6107ce818561075a565b93506107d98361076b565b8060005b8381101561080a5781516107f18882610794565b97506107fc836107ac565b9250506001810190506107dd565b5085935050505092915050565b6108208161077b565b82525050565b6000606082019050818103600083015261084081866106f1565b9050818103602083015261085481856107b9565b90506108636040830184610817565b949350505050565b60006108768261064d565b9050919050565b6108868161086b565b82525050565b60006020820190506108a1600083018461087d565b92915050565b60006108b282610699565b9050919050565b6108c2816108a7565b82525050565b60006020820190506108dd60008301846108b9565b92915050565b6108ec8161086b565b81146108f757600080fd5b50565b600081359050610909816108e3565b92915050565b6109188161077b565b811461092357600080fd5b50565b6000813590506109358161090f565b92915050565b600080600060608486031215610954576109536105b4565b5b6000610962868287016105df565b9350506020610973868287016108fa565b925050604061098486828701610926565b9150509250925092565b60006020820190506109a36000830184610817565b92915050565b6109b2816105be565b82525050565b60006020820190506109cd60008301846109a9565b92915050565b600080fd5b6000601f19601f8301169050919050565b7f4e487b7100000000000000000000000000000000000000000000000000000000600052604160045260246000fd5b610a21826109d8565b810181811067ffffffffffffffff82111715610a4057610a3f6109e9565b5b80604052505050565b6000610a536105aa565b9050610a5f8282610a18565b919050565b600067ffffffffffffffff821115610a7f57610a7e6109e9565b5b602082029050602081019050919050565b600080fd5b6000610aa08261086b565b9050919050565b610ab081610a95565b8114610abb57600080fd5b50565b600081519050610acd81610aa7565b92915050565b6000610ae6610ae184610a64565b610a49565b90508083825260208201905060208402830185811115610b0957610b08610a90565b5b835b81811015610b325780610b1e8882610abe565b845260208401935050602081019050610b0b565b5050509392505050565b600082601f830112610b5157610b506109d3565b5b8151610b61848260208601610ad3565b91505092915050565b600067ffffffffffffffff821115610b8557610b846109e9565b5b602082029050602081019050919050565b600081519050610ba58161090f565b92915050565b6000610bbe610bb984610b6a565b610a49565b90508083825260208201905060208402830185811115610be157610be0610a90565b5b835b81811015610c0a5780610bf68882610b96565b845260208401935050602081019050610be3565b5050509392505050565b600082601f830112610c2957610c286109d3565b5b8151610c39848260208601610bab565b91505092915050565b600080600060608486031215610c5b57610c5a6105b4565b5b600084015167ffffffffffffffff811115610c7957610c786105b9565b5b610c8586828701610b3c565b935050602084015167ffffffffffffffff811115610ca657610ca56105b9565b5b610cb286828701610c14565b9250506040610cc386828701610b96565b9150509250925092565b7f4e487b7100000000000000000000000000000000000000000000000000000000600052603260045260246000fd5b600082825260208201905092915050565b7f484f4e455920746f6b656e206e6f7420666f756e6420696e20706f6f6c000000600082015250565b6000610d43601d83610cfc565b9150610d4e82610d0d565b602082019050919050565b60006020820190508181036000830152610d7281610d36565b9050919050565b7f50726f766964656420746f6b656e206e6f7420666f756e6420696e20706f6f6c600082015250565b6000610daf602083610cfc565b9150610dba82610d79565b602082019050919050565b60006020820190508181036000830152610dde81610da2565b9050919050565b7f496e73756666696369656e742062616c616e636520666f7220484f4e45590000600082015250565b6000610e1b601e83610cfc565b9150610e2682610de5565b602082019050919050565b60006020820190508181036000830152610e4a81610e0e565b9050919050565b7f496e73756666696369656e742062616c616e636520666f7220746f6b656e0000600082015250565b6000610e87601e83610cfc565b9150610e9282610e51565b602082019050919050565b60006020820190508181036000830152610eb681610e7a565b9050919050565b7f4e487b7100000000000000000000000000000000000000000000000000000000600052601160045260246000fd5b6000610ef78261077b565b9150610f028361077b565b9250828202610f108161077b565b91508282048414831517610f2757610f26610ebd565b5b5092915050565b7f4e487b7100000000000000000000000000000000000000000000000000000000600052601260045260246000fd5b6000610f688261077b565b9150610f738361077b565b925082610f8357610f82610f2e565b5b82820490509291505056fea2646970667358221220eea3a66dc92c099c0c4c6030edac3d76ea368563dddb286cdc573d8c94f9352964736f6c634300081a0033",
  "linkReferences": {},
  "deployedLinkReferences": {}
}